:100B6B00CED4B2DB21C4E3CDB5CDB5B5F7CAD4CE67
:100B7B00D2B5C4B4AEBFDACFEBB8C9C2EF212121D5
:030B8B000D0A0050
:1008ED00120B387BFF7A0B796B120065120A317D82
:1008FD00887FB812035FEF640E60157D887FB81294
:10090D00035FEF640E60097F0A7E00120BCD800A33
:10091D007F0A7E00120BCD120ABD7F0A7E00120BDC
:10092D00CD20B1287D097FB812035F8F22EF2403FC
:10093D00FFE433FED3EF94FFEE64809480400575A1
:10094D0022FF802C74032522F522802420B02A7DDD
:10095D00097FB812035F8F22EF24FDE434FFC364D7
:10096D008094805005E4F522800674FD2522F52241
:10097D00AB227D097FB81206C57F0A7E00120BCD12
:03098D000208FC61
:100A3100D2B3D2B4D2B7D290D291D292D295D29629
:100A4100D2B1D2B07F0A7E00120BCDC2957F0A7E51
:100A510000120BCDD2957F587E02120BCD7BFD7D0E
:100A6100037FB8120B8EE4FB7D047FB8120B8E7BE3
:100A7100407D0D7FB8120B8E7B047D127FB8120B67
:100A81008E7B687D167FB8120B8E7BB17D097FB896
:100A9100120B8E7BB17D097FB8120B8EEF60F4C211
:100AA100927F0A7E00120BCDD2927F0A7E00120B3A
:0C0AB100CD7D887FB812035FBF0EF622D7
:04083D008F238D2454
:10084100C2917F027E00120C08752500752607AF44
:1008510026E523A807088002C313D8FC30E004D2A0
:10086100B78002C2B77F017E00120C08D2907F01CF
:100871007E00120C08C2907F017E00120C08E52652
:10088100152670021525C3E5256480948050C07F2C
:10089100027E00120C08752500752607AF26E52497
:1008A100A807088002C313D8FC30E004D2B7800245
:1008B100C2B77F017E00120C08D2907F017E001228
:1008C1000C08C2907F017E00120C08E526152670E7
:1008D100021525C3E5256480948050C07F027E0007
:0C08E100120C08D2917F027E00020C086D
:100ABD007D357F0112083D7D087F0412083DE4FD60
:100ACD007F0512083D7D087F0712083D7DEB7F08ED
:100ADD0012083D7D107F0912083D7D167F0A120810
:100AED003D7D057F0B12083D7D167F0C12083D7D67
:060AFD00687F0602083DBF
:100B38007598DA758920120990E47B0CFAF9F81295
:100B48000584E47B1FFAF9F8120584E47B587A02DD
:100B5800F9F81205841206168F8B8F8DD28ED2ACBF
:030B6800D2AF22E7
:100B03008F37120990E47B0CFAF9F8120584E47B21
:100B13001FFAF9F8120584E47B587A02F9F81205F2
:100B2300841206168F8B8F8DC2AC8537993099FD51
:050B3300C299D2AC22C2
:10099000E4F53BF53AF539F53878F8E6FFE53B4FF5
:1009A000F53BE53AF53AE539F539E538F538AF3B49
:1009B000AE3AAD39FC78081206248F3B8E3A8D3959
:1009C0008C3878F9E6FFE53B4FF53BE53AF53AE53B
:1009D00039F539E538F538AF3BAE3AAD39FC780832
:1009E0001206248F3B8E3A8D398C3878FAE6FFE573
:1009F0003B4FF53BE53AF53AE539F539E538F53859
:100A0000AF3BAE3AAD39FC78081206248F3B8E3AE4
:100A10008D398C3878FBE6FFE53B4FF53BE53AF541
:100A20003AE539F539E538F538AF3BAE3AAD39FC42
:010A300022A3
:100BCD00EF1FAA0670011E4A60107C017D06ED1D07
:0A0BDD00AA0470011C4A60E880F4CD
:010BE70022EB
:0B0C0800EF1FAC0670011E4C70F622BE
:100BB000D2B3D2B47F017E00120C08C2B37F017E93
:0D0BC00000120C08C2B47F017E00020C0878
:100BE800C2B3D2B47F017E00120C08D2B37F017E5B
:040BF80000020C08E3
:04035F008F268D2731
:10036300E526C313F52625E0F526120BB075280004
:10037300752907AF29E526A807088002C313D8FC0F
:1003830030E004D2B38002C2B37F017E00120C08B6
:10039300C2B47F017E00120C08D2B47F017E00122A
:1003A3000C08C2B4D2B37F017E00120C08E52915F4
:1003B3002970021528C3E5286480948050B520B3C2
:1003C300FD7F017E00120C08C2B47F017E00120C77
:1003D30008D2B47F017E00120C08C2B47F017E00F4
:1003E300120C08752800752907AF29E527A8070807
:1003F3008002C313D8FC30E004D2B38002C2B37FBF
:10040300017E00120C08C2B47F017E00120C08D2D8
:10041300B47F017E00120C08C2B4D2B37F017E0008
:10042300120C08E529152970021528C3E5286480F4
:10043300948050B520B3FD7F017E00120C08C2B436
:100443007F017E00120C08D2B47F017E00120C08DB
:10045300C2B47F017E00120C08E526C313F52625DE
:10046300E0F526432601120BB0752800752907AF66
:1004730029E526A807088002C313D8FC30E004D27C
:10048300B38002C2B37F017E00120C08C2B47F01A5
:100493007E00120C08D2B47F017E00120C08C2B495
:1004A300D2B37F017E00120C08E5291529700215CD
:1004B30028C3E5286480948050B520B3FD7F017E76
:1004C30000120C08C2B47F017E00120C08D2B47F64
:1004D300017E00120C08C2B47F647E00120C08E493
:1004E300F52AF5287529077F017E00120C08C2B48E
:1004F3007F017E00120C08D2B47F017E00120C082B
:10050300E52A25E0F52A30B303432A01E529152915
:1005130070021528C3E5286480948050CA7F017E49
:1005230000120C08C2B47F017E00120C08D2B47F03
:10053300017E00120C08C2B47F017E00120C081267
:040543000BE8AF2AE8
:010547002291
:0606C5008F268D278B2813
:1006CB00E526C313F52625E0F526120BB075290098
:1006DB00752A07AF2AE526A807088002C313D8FCA2
:1006EB0030E004D2B38002C2B37F017E00120C084B
:1006FB00C2B47F017E00120C08D2B47F017E0012BF
:10070B000C08C2B4D2B37F017E00120C08E52A1587
:10071B002A70021529C3E5296480948050B520B353
:10072B00FD7F017E00120C08C2B47F017E00120C0B
:10073B0008D2B47F017E00120C08C2B47F017E0088
:10074B00120C08752900752A07AF2AE527A8070898
:10075B008002C313D8FC30E004D2B38002C2B37F53
:10076B00017E00120C08C2B47F017E00120C08D26D
:10077B00B47F017E00120C08C2B4D2B37F017E009D
:10078B00120C08E52A152A70021529C3E529648085
:10079B00948050B520B3FD7F017E00120C08C2B4CB
:1007AB007F017E00120C08D2B47F017E00120C0870
:1007BB00C2B47F017E00120C08752900752A07AFA1
:1007CB002AE528A807088002C313D8FC30E004D21E
:1007DB00B38002C2B37F017E00120C08C2B47F014A
:1007EB007E00120C08D2B47F017E00120C08C2B43A
:1007FB00D2B37F017E00120C08E52A152A70021570
:10080B0029C3E5296480948050B520B3FD7F017E18
:10081B0000120C08C2B47F017E00120C08D2B47F08
:10082B00017E00120C08C2B47F017E00120C08027C
:02083B000BE8C8
:100B8E008F238D248B251206C57F147E00120BCD6C
:100B9E00AD24AF2312035FEF652560037F00227F34
:020BAE00012222
:03000000020BFCF4
:0C0BFC00787FE4F6D8FD75813B0208ED1F
:1005480075F008758200EF2FFFEE33FECD33CDCC6A
:1005580033CCC58233C5829BED9AEC99E5829840ED
:100568000CF582EE9BFEED9AFDEC99FC0FD5F0D6CA
:10057800E4CEFBE4CDFAE4CCF9A88222B800C1B9F4
:100588000059BA002DEC8BF084CFCECDFCE5F0CB32
:10059800F97818EF2FFFEE33FEED33FDEC33FCEB6B
:1005A80033FB10D703994004EB99FB0FD8E5E4F926
:1005B800FA227818EF2FFFEE33FEED33FDEC33FC13
:1005C800C933C910D7059BE99A4007EC9BFCE99A07
:1005D800F90FD8E0E4C9FAE4CCFB2275F010EF2F4C
:1005E800FFEE33FEED33FDCC33CCC833C810D7074C
:1005F8009BEC9AE899400AED9BFDEC9AFCE899F887
:0E0608000FD5F0DAE4CDFBE4CCFAE4C8F92219
:0E061600C3E49FFFE49EFEE49DFDE49CFC22F5
:10062400E8600FEFC333FFEE33FEED33FDEC33FC34
:03063400D8F122D8
:10000300E5322426F8E605322278233007027826E3
:10001300E475F00112068F0206372000EB7F2ED223
:10002300008018EF540F2490D43440D4FF30040BD5
:10003300EF24BFB41A0050032461FFE533600215B7
:10004300330536E5367002053530070D7823E47540
:10005300F00112068FEF02067D020B037403D20731
:100063008003E4C207F5328B238A248925E4F53320
:10007300F535F536E53360077F2012003E80F575D0
:1000830034FFC201C200C202C203C205C206C208D3
:1000930012000CFF700D3007057F0012004FAF36C2
:1000A300AE3522B4255FC2D5C20412000CFF24D0A2
:1000B300B40A00501A75F00A783330D50508B6FF34
:1000C3000106C6A426F620D5047002D20380D924E3
:1000D300CFB41A00EF5004C2E5D20402024FD2019A
:1000E30080C6D20080C0D20280BCD2D580BAD205ED
:1000F30080B47F2012003E2002077401B533004014
:10010300F1120003FF12003E020077D208D20680EC
:1001130095120003FB120003FA120003F94A4B7015
:100123000679207A037BFF20022EE533602A7E00C6
:100133008E8275830012065060060EEE653470F0F1
:10014300C2D5EBC0E0EAC0E0E9C0E0EE120296D00F
:10015300E0F9D0E0FAD0E0FB120637FF60AAEBC06B
:10016300E0EAC0E0E9C0E012003ED0E02401F9D0AB
:10017300E03400FAD0E0FBE5340460DCD534D98008
:10018300877BFF7A027992D202809C791080027970
:1001930008C206C2088008D2D5790A8004790AC247
:1001A300D5E534047002F534E4FAFDFEFF120003D2
:1001B300FC7B08200113120003FD7B1030000A12A0
:1001C3000003FE120003FF7B20EC3382D592D5504F
:1001D30013C3E43000069FFFE49EFEE42001039D69
:1001E300FDE49CFCE4CBF8C201EC700CCFCECDCC8B
:1001F300E824F8F870F38017C3EF33FFEE33FEED16
:1002030033FDEC33FCEB33FB994002FB0FD8E9EBF6
:10021300300105F8D0E0C448B201C0E00AEC4D4E0D
:100223004F78207B0070C2EAB5340040BCC0E012B6
:100233000298D0F0D0E0200104C4C0E0C4B201C0F1
:10024300F0120027D0F0D5F0EB02007712069F01E1
:100253001453018E5800E54C00E14201924F019A7C
:0F02630044019A4900FA4301A0550184460184E1
:100272004501844703405000E92D00ED2E01102B6B
:1002820000F123010E2003292A00A94800000108D9
:100292003F3F3F00790AA2D5200314300509B91067
:1002A200020404B9080104A2D52006025001042068
:1002B20002689202B533005034C0E07F2030031947
:1002C2007F30A20272067205500F1202EFC202C202
:1002D20006C205C2087F30800F300503E9C0E01274
:1002E200003E300503D0E0F9D0E0B533CC3005173D
:1002F2007F30B9100C12003E7F583004077F78809F
:1003020003B9080312003E3002057F2D02003E7F32
:10031200202008F87F2B2006F322920280CF286E3D
:10032200756C6C2900D2011200033001F8C2017809
:100332003330D50108F60200A92D50434958120066
:10034200032403B405004001E490033B9312002F01
:0D035200743A12002FD20375330402018E9D
:10063700BB010689828A83E0225002E722BBFE02C1
:09064700E32289828A83E49322F4
:10065000BB010CE58229F582E5833AF583E022505F
:1006600006E92582F8E622BBFE06E92582F8E222A9
:0D067000E58229F582E5833AF583E49322C3
:10067D00BB010689828A83F0225002F722BBFE015C
:02068D00F32256
:10068F00FAE6FB0808E6F925F0F618E6CA3AF6226C
:10069F00D083D082F8E4937012740193700DA3A3EA
:1006AF0093F8740193F5828883E4737402936860FE
:0606BF00EFA3A3A380DFFE
:00000001FF
